:100000000C9463000C948B000C948B000C940C06E5
:100010000C940C060C940C060C948B000C948B0026
:100020000C948B000C948B000C948B000C9450055A
:100030000C948B000C948B000C948B000C948B0014
:100040000C94AE040C948B000C941E050C94F804D4
:100050000C948B000C948B000C948B000C948B00F4
:100060000C948B000C948B000000000024002700EF
:100070002A0000000008000201000003040700003D
:1000800000000000000000000000230026002900FE
:1000900000000000250028002B00040404040404D0
:1000A0000404020202020202030303030303010227
:1000B00004081020408001020408102001020408F6
:1000C000102084060F0B11241FBECFEFD8E0DEBF37
:1000D000CDBF11E0A0E0B1E0E6E8F0E202C005909B
:1000E0000D92A636B107D9F722E0A6E6B1E001C02D
:1000F0001D92A73BB207E1F710E0C2E6D0E004C0D2
:100100002197FE010E943E0EC136D107C9F70E9419
:1001100082070C9436100C9400008F929F92AF923D
:10012000BF92FF920F931F93CF93DF93F0908602BD
:100130002BE02F1508F451C02091880208E512E049
:10014000021B110927FD1395000F111F000F111F2E
:1001500020918702C8E8D0E0C21BD10927FDD395C2
:10016000CC0FDD1FCC0FDD1F4E010D2E000CAA0899
:10017000BB08DC01853B910514F0A4EBB0E09801CD
:10018000012E000C440B550B281939094A095B094B
:100190000E94850C24EB30E040E050E00E945B0CB4
:1001A000820E931EA41EB51E8C169D062CF0E8012F
:1001B000801691060CF4E4012297CC0FDD1F2FB7B7
:1001C000F8948F2D90E0FC01EE0FFF1FE80FF91F50
:1001D000E854FE4FD283C1832FBFDF91CF911F918F
:1001E0000F91FF90BF90AF909F908F9008958F9246
:1001F0009F92AF92BF92CF92DF92EF92FF92809147
:10020000880258E5C52E52E0D52EC81AD10887FDC0
:10021000D394CC0CDD1CCC0CDD1C0D2C000CEE089A
:10022000FF088091870278E8872E912C881A910820
:1002300087FD9394880C991C880C991C092C000C40
:10024000AA08BB08809186028F3FD1F190E0FC01A3
:10025000EE0FFF1FE80FF91FE854FE4F81819281D6
:1002600033E0880F991F3A95E1F7B0E0A0E044E051
:10027000B595A795979587954A95D1F702969C01D4
:100280002F5F3F4F032E000C440B550B28193909E3
:100290004A095B09A4EBB0E00E947A0CA701960121
:1002A000281939094A095B090E945B0CC901FF90B2
:1002B000EF90DF90CF90BF90AF909F908F90089578
:1002C00090E080E0DCCF90E0FC01EE58FF4F2491FD
:1002D000FC01E255FF4F3491FC01E656FF4FE491DB
:1002E000EE23C9F0222339F0233001F1A8F42130A4
:1002F00019F1223029F1F0E0EE0FFF1FE057FF4F18
:10030000A591B4918FB7F894EC91611126C0309506
:100310003E233C938FBF08952730A9F02830C9F0C1
:10032000243049F7809180008F7D03C08091800048
:100330008F7780938000DFCF84B58F7784BDDBCF4C
:1003400084B58F7DFBCF8091B0008F778093B00014
:10035000D2CF8091B0008F7DF9CF3E2BDACFCF93F3
:10036000DF9390E0FC01E255FF4F249186569F4FAA
:10037000FC0184918823D1F090E0880F991FFC0143
:10038000E859FF4FA591B491FC01E057FF4FC5918B
:10039000D49161110EC09FB7F8948C91E22FE09533
:1003A0008E238C932881E223E8839FBFDF91CF9136
:1003B00008958FB7F894EC91E22BEC938FBFF6CFB2
:1003C0003FB7F8948091B4019091B501A091B60126
:1003D000B091B70126B5A89B05C02F3F19F0019633
:1003E000A11DB11D3FBFBA2FA92F982F8827BC018F
:1003F000CD01620F711D811D911D42E0660F771FB7
:10040000881F991F4A95D1F708958F929F92AF92B6
:10041000BF92CF92DF92EF92FF926B017C010E941C
:10042000E0014B015C01C114D104E104F104B9F015
:100430000E94E001681979098A099B09683E7340A6
:100440008105910580F321E0C21AD108E108F10885
:1004500088EE880E83E0981EA11CB11CE4CFFF90AB
:10046000EF90DF90CF90BF90AF909F908F900895C6
:10047000AF92BF92CF92DF92EF92FF920F931F93B2
:10048000CF93DF936C017B018B01040F151FEB01F0
:100490005E01AE18BF08C017D10759F06991D601A7
:1004A000ED91FC910190F081E02DC6010995892B19
:1004B00079F7C501DF91CF911F910F91FF90EF90D8
:1004C000DF90CF90BF90AF900895FC01538D448D85
:1004D000252F30E0842F90E0821B930B541710F0EF
:1004E000CF96089501970895FC01918D828D9817FC
:1004F00061F0A28DAE0FBF2FB11D5D968C91928DD4
:100500009F5F9F73928F90E008958FEF9FEF089504
:10051000FC01918D828D981731F0828DE80FF11DCD
:10052000858D90E008958FEF9FEF0895FC01918DE8
:10053000228D892F90E0805C9F4F821B91098F73E1
:10054000992708958CED91E00E94960221E0892B75
:1005500009F420E0822F089580E090E0892B29F0B3
:100560000E94A20281110C9400000895FC01A48D48
:10057000A80FB92FB11DA35ABF4F2C91848D90E0C5
:1005800001968F739927848FA689B7892C93A089A8
:10059000B1898C91837080648C93938D848D981332
:1005A00006C00288F389E02D80818F7D80830895C5
:1005B000EF92FF920F931F93CF93DF93EC0181E0B3
:1005C000888F9B8D8C8D98131AC0E889F98980815A
:1005D00085FF15C09FB7F894EE89FF896083E8898D
:1005E000F98980818370806480839FBF81E090E07F
:1005F000DF91CF911F910F91FF90EF900895F62E0C
:100600000B8D10E00F5F1F4F0F731127E02E8C8DA5
:100610008E110CC00FB607FCFACFE889F9898081EA
:1006200085FFF5CFCE010E94B602F1CFEB8DEC0F26
:10063000FD2FF11DE35AFF4FF0829FB7F8940B8F07
:10064000EA89FB8980818062CFCFCF93DF93EC0171
:10065000888D8823B9F0AA89BB89E889F9898C91AA
:1006600085FD03C0808186FD0DC00FB607FCF7CF66
:100670008C9185FFF2CF808185FFEDCFCE010E9466
:10068000B602E9CFDF91CF9108952091A901309171
:10069000AA012817390771F49091A7018091A80148
:1006A000981741F0E091A701F0E0EA59FE4F8081F0
:1006B00090E008958FEF9FEF08950895EF92FF92D5
:1006C0000F931F93CF93DF93DC015C96ED90FC902A
:1006D0005D97E114F10479F481E090E013969C9326
:1006E0008E93129790E080E0DF91CF911F910F9150
:1006F000FF90EF9008955196ED91FC91529750968E
:100700008C915097982F90950FB75E962C915E978D
:10071000122F127021FD6095F8942081112319F198
:10072000282B2083E7012197F1F728E0462F50E09E
:10073000308160FF1AC0382B3083E7012197F1F731
:10074000BA0175956795215089F7112381F0808151
:10075000892380830FBF5C968D919C910197F1F75F
:1007600081E090E0C1CF2923DCCF3923E5CF908110
:10077000892BEFCF2091A9013091AA0128173907C1
:1007800071F48091A8012091A70190E0805C9F4FB7
:10079000821B910960E470E00E94160E089590E0BB
:1007A00080E008952091A9013091AA012817390706
:1007B000B9F49091A7018091A801981789F0E09170
:1007C000A701F0E0EA59FE4F80812091A70130E0B7
:1007D0002F5F3F4F2F7333272093A70190E0089599
:1007E0008FEF9FEF089590E080E008950F931F939F
:1007F000CF93DF93EC0188819981009759F02A818A
:100800003B812617370730F081E0DF91CF911F91B0
:100810000F9108958B016F5F7F4F0E94690F0097C2
:1008200059F0998388831B830A832C813D81232B74
:1008300059F7FC011082E8CF80E0E7CFEF92FF92FA
:100840000F931F93CF93DF936115710541F480E0FF
:10085000DF91CF911F910F91FF90EF900895411577
:100860005105B1F07B01EC010C811D81040F151FB6
:10087000B8010E94F603882351F3288139818C81C5
:100880009D81B701820F931F0E942F101D830C833F
:1008900081E0DECFCF93DF93EC01888199810097CF
:1008A00011F00E94E00E198218821D821C821B82A8
:1008B0001A82DF91CF910895CF93DF93EC01FB0172
:1008C00001900020E9F73197AF01461B570B0E94BA
:1008D0001E04811103C0CE010E944A04CE01DF91A3
:1008E000CF910895CF93DF93EC01FB0144815581B3
:1008F000608171810E941E04811103C0CE010E949B
:100900004A04CE01DF91CF910895EF92FF920F93A9
:100910001F93CF93DF93EC017B018A01BA010E9400
:10092000F60381110BC0CE010E944A04CE01DF9173
:10093000CF911F910F91FF90EF9008951D830C832D
:10094000B701888199810E942F10F0CFFC0180812E
:100950009181009711F00C94E00E08951F920F9270
:100960000FB60F9211242F933F938F939F93AF93C2
:10097000BF938091B0019091B101A091B201B0916B
:10098000B3013091AF0123E0230F2D3758F50196C5
:10099000A11DB11D2093AF018093B0019093B101CF
:1009A000A093B201B093B3018091B4019091B501CD
:1009B000A091B601B091B7010196A11DB11D809320
:1009C000B4019093B501A093B601B093B701BF9164
:1009D000AF919F918F913F912F910F900FBE0F90EC
:1009E0001F90189526E8230F0296A11DB11DD2CFA6
:1009F0001F920F920FB60F9211242F933F934F9394
:100A00005F936F937F938F939F93AF93BF93EF9376
:100A1000FF938CED91E00E94B602FF91EF91BF91A0
:100A2000AF919F918F917F916F915F914F913F9186
:100A30002F910F900FBE0F901F9018951F920F923D
:100A40000FB60F9211242F938F939F93EF93FF93E1
:100A5000E091EC01F091ED018081E091F201F091E3
:100A6000F30182FD1BC090818091F5018F5F8F7330
:100A70002091F601821741F0E091F501F0E0E45297
:100A8000FE4F958F8093F501FF91EF919F918F918C
:100A90002F910F900FBE0F901F9018958081F4CF6B
:100AA0001F920F920FB60F9211242F933F934F93E3
:100AB0005F936F937F938F939F93AF93BF93CF93E6
:100AC000DF93EF93FF938091A601C0917902D0E06C
:100AD00087FF24C010928500109284008091A601A7
:100AE0008F5F8093A6018091A601082E000C990BC0
:100AF0008C179D0724F48091A6018C30C4F180915D
:100B0000840090918500049680349C4908F47AC052
:100B10008091840090918500049676C08091A60112
:100B2000082E000C990B8C179D07C4F6E091A601C6
:100B30008E2FEE0F990BFC01EE0FFF1FE80FF91F30
:100B4000E854FE4F808186FFC9CFE091A6018E2F29
:100B5000EE0F990BFC01EE0FFF1FE80FF91FE85491
:100B6000FE4F808160E08F730E946301B7CF2091B8
:100B7000840030918500E091A6018E2FEE0F990B35
:100B8000FC01EE0FFF1FE80FF91FE854FE4F8181B3
:100B90009281820F931F9093890080938800E09147
:100BA000A6018E2FEE0F990BFC01EE0FFF1FE80F31
:100BB000F91FE854FE4F808186FF11C0E091A60125
:100BC0008E2FEE0F990BFC01EE0FFF1FE80FF91FA0
:100BD000E854FE4F808161E08F730E946301FF91B2
:100BE000EF91DF91CF91BF91AF919F918F917F91C5
:100BF0006F915F914F913F912F910F900FBE0F908A
:100C00001F90189580E49CE9909389008093880058
:100C10008FEF8093A601E3CF1F920F920FB60F9232
:100C200011242F933F934F935F936F937F938F93F1
:100C30009F93AF93BF93EF93FF93E091A901F0913E
:100C4000AA01309749F0A685B7858585968D91FFD5
:100C500014C09C918923A1F4FF91EF91BF91AF91B2
:100C60009F918F917F916F915F914F913F912F91C4
:100C70000F900FBE0F901F9018959C91892361F7DC
:100C8000A389B4899C918589809589238C938689D1
:100C900097890197F1F7608D718DA685B785558588
:100CA00038E020E0CB010197F1F7822F90E0959595
:100CB0008795282F4C91452309F02068315091F7F2
:100CC000868D81FD20958091A80190E001968F731B
:100CD00099273091A701381799F0A091A801B0E0A9
:100CE000AA59BE4F2C938093A801828D938D0197B2
:100CF000F1F7A389B4898C919589892B8C93ACCF1A
:100D0000868D8160868FF1CF1092DF011092DE0117
:100D100088EE93E0A0E0B0E08093E0019093E101E1
:100D2000A093E201B093E3012CE031E03093DD01C8
:100D30002093DC0125EC30E03093E9012093E801B9
:100D400024EC30E03093EB012093EA0120EC30E01A
:100D50003093ED012093EC0121EC30E03093EF0172
:100D60002093EE0122EC30E03093F1012093F0016A
:100D700026EC30E03093F3012093F2011092F5015C
:100D80001092F6011092F7011092F80122E02093E0
:100D9000B202109293021092920280939402909366
:100DA0009502A0939602B09397028EE191E0909302
:100DB0009102809390021092A7021092A6021092C4
:100DC000A9021092A8021092AB021092AA021092ED
:100DD000AD021092AC026091AE026E7F6D7F6093A7
:100DE000AE026695617081E0682785E00E9463012C
:100DF00061E085E00E94AF01E3EBF0E0E491E09375
:100E0000A002EFE9F0E0E491F0E0EE0FFF1FE05701
:100E1000FF4F859194919093A2028093A10260E08C
:100E200086E00E94AF018091AE0281FD04C061E0C6
:100E300086E00E94630186E080939C02E4EBF0E090
:100E4000E491E0939D02E0EAF0E0E491F0E0EE0F3F
:100E5000FF1FEA57FF4F2591349130939F02209353
:100E60009E022EE131E03093910220939002809314
:100E7000AF0285E08093B00282E08093B10280915E
:100E800079028C30E8F591E0980F90937902809385
:100E9000860210928D0210928E0210928F028BE0C9
:100EA000809389028FEA80938A0288E280938B0282
:100EB0008AE080938C028EE090E090937B02809396
:100EC0007A0285E090E090937D0280937C0280E13D
:100ED00097E290937F0280937E028CE291E0909360
:100EE00081028093800283E290E09093830280935A
:100EF000820284E690E090938502809384020895B4
:100F00008FEFC5CFCF93DF93CDB7DEB7AB970FB6DB
:100F1000F894DEBF0FBECDBF789484B5826084BDE7
:100F200084B5816084BD85B5826085BD85B58160ED
:100F300085BD80916E00816080936E00109281006B
:100F40008091810082608093810080918100816026
:100F500080938100809180008160809380008091E7
:100F6000B10084608093B1008091B0008160809373
:100F7000B00080917A00846080937A0080917A003A
:100F8000826080937A0080917A00816080937A00F9
:100F900080917A00806880937A001092C100E0917D
:100FA000EC01F091ED0182E08083E091E801F091A5
:100FB000E9011082E091EA01F091EB018FEC80836E
:100FC0001092F401E091F001F091F10186E080834C
:100FD000E091EE01F091EF01808180618083E091EA
:100FE000EE01F091EF01808188608083E091EE0155
:100FF000F091EF01808180688083E091EE01F091B3
:10100000EF0180818F7D808361E08091B2020E9438
:10101000AF01809186028C3008F054C01091890293
:1010200061E0812F0E94AF0180918602282F30E07D
:10103000F901EE0FFF1FE20FF31FE854FE4F1F737D
:101040009081907C912B908310928702109288025D
:101050002CE0622F0E940A0E829FB001112430E022
:1010600020E0AB01420F531FFA01EE0FFF1FE40F08
:10107000F51FE854FE4F908196FD16C02F5F3F4F3D
:101080002C30310571F781110FC01092800082E081
:10109000809381001092850010928400B19A809113
:1010A0006F00826080936F00E09186028E2F90E047
:1010B000FC01EE0FFF1FE80FF91FE854FE4F80817F
:1010C000806480831092AB021092AA021092A9024F
:1010D0001092A8021092A7021092A6028DE991E048
:1010E0009093AD028093AC0290919C02963108F0EF
:1010F00047C02DEB30E03093A7022093A6022BE9E6
:1011000031E03093A9022093A8022CE231E0309321
:10111000AB022093AA022091680084E0983048F046
:1011200031E09E3008F430E081E001C0880F3A954C
:10113000EAF7822B809368002DE630E0983050F07B
:101140002BE630E09E3030F02CE630E0963110F0A7
:1011500030E020E03093A4022093A302292F30E056
:10116000983008F092C081E001C0880F9A95EAF7A4
:101170008093A5028091AC029091AD020197F1F7A6
:101180008091AA029091AB02892B49F1E091A901CB
:10119000F091AA0122E0E039F20709F1309739F025
:1011A000A389B4899C918589809589238C938091AA
:1011B000AE028E7F8093AE021092A8011092A7011A
:1011C00080E992E09093AA018093A901E091A302A3
:1011D000F091A40280819091A502892B808360E028
:1011E00080917A020E94AF018E010F5F1F4F1E0196
:1011F00033E1230E311C80917A028E3008F08E503C
:101200008770806480937C0080917A0080648093F2
:101210007A0080917A0086FDFCCFC0907800D09053
:101220007900E0907C02F0907D0260907E027090E8
:101230007F029090B202A12CB12C80E992E00E9432
:10124000BA03181619069CF5B1100AC061E0892D81
:101250000E94630164EF70E080E090E00E9405026C
:1012600080E992E00E94D2038C33E1F480E992E0BD
:101270000E94D2038E33C1F0EB2DF0E0E050FF4F1F
:1012800080538083AA24A39410C09E3040F4285039
:10129000310981E001C0880F2A95EAF769CF2E5005
:1012A0003109F7CFA110E6CFA12CB394C6CF80911E
:1012B00000018BA781112FC08091010190E09093D4
:1012C000AE018093AD01D12CC12C8091AD018093F2
:1012D0008D02B090B202813009F05DC180918F0221
:1012E000811177C1F0908A0280918B028F1508F0EE
:1012F00070C18F2D90E00E948D00E0908C0261E023
:101300008B2D0E9463016E2D70E090E080E00E94C2
:101310000502FA94E9CFB701FF0C880B990B0E94E4
:10132000620B4B015C01B601072E000C880B990B78
:101330000E94620B6B017C0120E030EC4FE754E42B
:10134000C501B4010E94620D9B01AC01C701B60149
:101350000E949D0B6B017C01B301770C880B990BEC
:101360000E94620B2B013C01A7019601C501B4014B
:101370000E94F50C9B01AC01C301B2010E949D0BC0
:10138000A70196010E94620D20E030E04AE754E494
:101390000E94620D9B01AC0160E070E08AEF93E473
:1013A0000E94620D0E94D40D2B01EBA5E13009F5DE
:1013B00031E0633271050CF4ECC030E06D32714005
:1013C0000CF0E7C080918A02282F2450330B79015A
:1013D0000E94F70031E020E08E159F050CF030E010
:1013E000822F3093AD018093AE01CC24C394D12CD5
:1013F0006CCF80918A02282F2450330B79010E94F0
:10140000F7006C01B090AB011EA21DA218A61FA28E
:101410001AA619A64AE0B801C2010E942B0BF801D6
:1014200001900020E9F73197AF01401B510BB80143
:10143000CE0185960E9485046CE271E0BB2011F01C
:101440006FE271E018A21F8E1AA219A21CA21BA2A1
:10145000FB0101900020E9F73197AF01461B570BC4
:10146000CE014F960E94850464E371E0CE14DF0440
:1014700014F069E371E01A8E198E1C8E1B8E1E8E7D
:101480001D8EFB0101900020E9F73197AF01461B4B
:10149000570BCE0149960E9485041A8219821C823C
:1014A0001B821E821D824DE050E06DE371E0C80199
:1014B0000E948504BE016B5D7F4FC8010E947204CB
:1014C0006BE471E00E945C0464E571E00E945C04DE
:1014D000BE01615E7F4F0E94720464E671E00E946B
:1014E0005C046BE571E00E945C04BE01675E7F4FA7
:1014F0000E94720463E671E00E945C041C8A1B8AED
:101500001E8A1D8A188E1F8A8215930559F0FC01C8
:10151000608171816115710529F044815581C10196
:101520000E948504C8010E94A604F12C2F2D30E0F2
:101530008F89988D2817390778F48B899C8960E00A
:10154000009721F0820F931FFC01608180E992E0F7
:101550000E945E03F394EACF64EF71E080E090E0D4
:101560000E940502C1010E94A604CE0149960E9474
:10157000A604CE014F960E94A604CE0185960E9435
:10158000A6048091AB018093000192E0C92ED12C7A
:101590009CCE80E026CF81111CC080918F028111EA
:1015A00018C0F0908B0280918A02F81690F48F2D6B
:1015B00090E00E948D00E0908C0261E08B2D0E94F3
:1015C00063016E2D70E090E080E00E940502F394CC
:1015D000EACF60E08091B2020E94630180918D02A7
:1015E00090918E028917C9F091E0823009F090E065
:1015F00090938F0280938E02D092AC01C092AB0187
:1016000080E090E0892B09F4F6CD0E94A2028823A5
:1016100009F4F1CD0E940000EECD91E0E9CF8EE11A
:1016200091E090939102809390028091A901909112
:10163000AA018059924071F4E091A302F091A402B2
:1016400090818091A5028095892380831092AA01C0
:101650001092A9010895BB274A3031F4992322F44E
:10166000BDE2909581959F4F0C94370BBB27FB01F2
:101670005527AA27880F991FAA1FA41710F0A41B8B
:1016800083955051B9F7A05DAA3308F0A95DA193E5
:10169000009779F7B111B1931192CB010C94500BD3
:1016A000DC01FC01672F71917723E1F7329704C0C9
:1016B0007C916D9370836291AE17BF07C8F3089554
:1016C000E89409C097FB3EF49095809570956195DC
:1016D0007F4F8F4F9F4F9923A9F0F92F96E9BB2792
:1016E0009395F695879577956795B795F111F8CF0E
:1016F000FAF4BB0F11F460FF1BC06F5F7F4F8F4F79
:101700009F4F16C0882311F096E911C0772321F06E
:101710009EE8872F762F05C0662371F096E8862F06
:1017200070E060E02AF09A95660F771F881FDAF75D
:10173000880F9695879597F908950E94B00B0C94A1
:10174000210C0E94130C38F00E941A0C20F09523F3
:1017500011F00C940A0C0C94100C11240C94550CE0
:101760000E94320C70F3959FC1F3950F50E0551F06
:10177000629FF001729FBB27F00DB11D639FAA27E6
:10178000F00DB11DAA1F649F6627B00DA11D661F35
:10179000829F2227B00DA11D621F739FB00DA11D56
:1017A000621F839FA00D611D221F749F3327A00D10
:1017B000611D231F849F600D211D822F762F6A2FAC
:1017C00011249F5750409AF0F1F088234AF0EE0F11
:1017D000FF1FBB1F661F771F881F91505040A9F73E
:1017E0009E3F510580F00C940A0C0C94550C5F3F01
:1017F000E4F3983ED4F3869577956795B795F7957A
:10180000E7959F5FC1F7FE2B880F911D96958795F1
:1018100097F9089597F99F6780E870E060E0089570
:101820009FEF80EC089500240A94161617061806F8
:101830000906089500240A941216130614060506D4
:101840000895092E0394000C11F4882352F0BB0F65
:1018500040F4BF2B11F460FF04C06F5F7F4F8F4FC8
:101860009F4F089557FD9058440F551F59F05F3F03
:1018700071F04795880F97FB991F61F09F3F79F0B2
:1018800087950895121613061406551FF2CF469534
:10189000F1DF08C0161617061806991FF1CF8695B6
:1018A0007105610508940895E894BB27662777279A
:1018B000CB0197F90895052E97FB1EF400940E9422
:1018C000720C57FD07D00E94C40C07FC03D04EF4E5
:1018D0000C94720C50954095309521953F4F4F4F89
:1018E0005F4F089590958095709561957F4F8F4FCC
:1018F0009F4F08950E94E60CA59F900DB49F900DF8
:10190000A49F800D911D11240895B7FF0C947A0CAB
:101910000E947A0C821B930B08952F923F924F9254
:101920005F926F927F928F929F92AF92BF92CF926F
:10193000DF92EF92FF920F931F93CF93DF93CDB778
:10194000DEB7CA1BDB0B0FB6F894DEBF0FBECDBFF0
:1019500009942A88398848885F846E847D848C84C1
:101960009B84AA84B984C884DF80EE80FD800C81CA
:101970001B81AA81B981CE0FD11D0FB6F894DEBFAD
:101980000FBECDBFED010895A1E21A2EAA1BBB1B0D
:10199000FD010DC0AA1FBB1FEE1FFF1FA217B3073B
:1019A000E407F50720F0A21BB30BE40BF50B661F51
:1019B000771F881F991F1A9469F760957095809515
:1019C00090959B01AC01BD01CF010895A29FB0018C
:1019D000B39FC001A39F700D811D1124911DB29F63
:1019E000700D811D1124911D08955058BB27AA2701
:1019F0000E940D0D0C94210C0E94130C38F00E94D3
:101A00001A0C20F039F49F3F19F426F40C94100CB2
:101A10000EF4E095E7FB0C940A0CE92F0E94320CBF
:101A200058F3BA17620773078407950720F079F413
:101A3000A6F50C94540C0EF4E0950B2EBA2FA02DA5
:101A40000B01B90190010C01CA01A0011124FF276B
:101A5000591B99F0593F50F4503E68F11A16F04066
:101A6000A22F232F342F4427585FF3CF4695379565
:101A70002795A795F0405395C9F77EF41F16BA0B2A
:101A8000620B730B840BBAF09150A1F0FF0FBB1FD8
:101A9000661F771F881FC2F70EC0BA0F621F731F21
:101AA000841F48F4879577956795B795F7959E3F7E
:101AB00008F0B0CF9395880F08F09927EE0F97950F
:101AC000879508950E94760D0C94210C0E941A0CA3
:101AD00058F00E94130C40F029F45F3F29F00C9459
:101AE0000A0C51110C94550C0C94100C0E94320CE1
:101AF00068F39923B1F3552391F3951B550BBB273D
:101B0000AA2762177307840738F09F5F5F4F220F81
:101B1000331F441FAA1FA9F335D00E2E3AF0E0E878
:101B200032D091505040E695001CCAF72BD0FE2FC2
:101B300029D0660F771F881FBB1F26173707480756
:101B4000AB07B0E809F0BB0B802DBF01FF2793580E
:101B50005F4F3AF09E3F510578F00C940A0C0C94BC
:101B6000550C5F3FE4F3983ED4F3869577956795DF
:101B7000B795F7959F5FC9F7880F911D9695879543
:101B800097F90895E1E0660F771F881FBB1F621762
:101B900073078407BA0720F0621B730B840BBA0B20
:101BA000EE1F88F7E09508950E94DB0D6894B1114F
:101BB0000C94550C08950E943A0C88F09F5798F0A9
:101BC000B92F9927B751B0F0E1F0660F771F881F42
:101BD000991F1AF0BA95C9F714C0B13091F00E945C
:101BE000540CB1E008950C94540C672F782F88277B
:101BF000B85F39F0B93FCCF3869577956795B39583
:101C0000D9F73EF490958095709561957F4F8F4FF1
:101C10009F4F0895991B79E004C0991F961708F00B
:101C2000961B881F7A95C9F78095089597FB072E14
:101C300016F4009407D077FD09D00E942A0E07FC05
:101C400005D03EF4909581959F4F089570956195CC
:101C50007F4F0895AA1BBB1B51E107C0AA1FBB1FE2
:101C6000A617B70710F0A61BB70B881F991F5A9528
:101C7000A9F780959095BC01CD010895EE0FFF1F47
:101C80000590F491E02D09940F931F93CF93DF9368
:101C90008230910510F482E090E0E091B502F0917D
:101CA000B60230E020E0B0E0A0E0309799F42115D2
:101CB000310509F44AC0281B390B24303105D8F509
:101CC0008A819B816115710589F1FB019383828370
:101CD000FE0111C0408151810281138148175907CB
:101CE000E0F04817590799F4109761F012960C9399
:101CF000129713961C933296CF01DF91CF911F91CB
:101D00000F9108950093B5021093B602F4CF2115F8
:101D1000310551F04217530738F0A901DB019A0150
:101D2000BD01DF01F801C1CFEF01F9CF9093B602F9
:101D30008093B502CDCFFE01E20FF31F8193919303
:101D40002250310939832883D7CF2091B3023091B3
:101D5000B402232B41F4209104013091050130930A
:101D6000B4022093B30220910201309103012115A6
:101D7000310541F42DB73EB740910601509107015E
:101D8000241B350BE091B302F091B402E217F30784
:101D9000A0F42E1B3F0B2817390778F0AC014E5FDB
:101DA0005F4F2417350748F04E0F5F1F5093B40262
:101DB0004093B302819391939FCFF0E0E0E09CCFFA
:101DC000CF93DF930097E9F0FC01329713821282E0
:101DD000A091B502B091B602ED0130E020E010977D
:101DE000A1F420813181820F931F2091B3023091A1
:101DF000B4022817390709F061C0F093B402E093E8
:101E0000B302DF91CF910895EA01CE17DF07E8F51D
:101E10004A815B819E0141155105B1F7E901FB83C0
:101E2000EA8349915991C40FD51FEC17FD0761F45E
:101E3000808191810296840F951FE901998388839F
:101E4000828193819B838A83F0E0E0E012968D91FA
:101E50009C9113970097B9F52D913C911197CD0165
:101E60000296820F931F2091B3023091B40228177B
:101E7000390739F6309751F51092B6021092B50233
:101E8000B093B402A093B302BCCFD383C28340818A
:101E90005181840F951FC817D90761F44E5F5F4FBA
:101EA00088819981480F591F518340838A819B8182
:101EB000938382832115310509F0B0CFF093B602E8
:101EC000E093B5029ECFFD01DC01C0CF13821282E8
:101ED000D7CFB0E0A0E0EFE6FFE00C948F0C8C01D0
:101EE000009751F4CB010E94440E8C01C801CDB77C
:101EF000DEB7E0E10C94AB0CFC01E60FF71F9C0190
:101F000022503109E217F30708F49DC0D901CD91A1
:101F1000DC911197C617D70798F0C530D10530F37B
:101F2000CE0104978617970708F3C61BD70B229795
:101F3000C193D1936D937C93CF010E94E00ED6CFD5
:101F40005B01AC1ABD0A4C018C0E9D1EA091B5021E
:101F5000B091B602512C412CF12CE12C109731F5A7
:101F60008091B3029091B4028815990509F05CC084
:101F70004616570608F058C080910201909103015F
:101F8000009741F48DB79EB740910601509107012B
:101F9000841B950BE817F90708F055C0F093B402BD
:101FA000E093B302F90171836083A0CF8D919C917E
:101FB000119712966C90129713967C901397A81510
:101FC000B90559F56C0142E0C40ED11CCA14DB04FA
:101FD00020F1AC014A195B09DA011296159780F0DD
:101FE0006282738251834083D9016D937C93E114A3
:101FF000F10471F0D7011396FC93EE93129776CF0C
:1020000022968C0F9D1FF90191838083F301EFCFFE
:10201000F093B602E093B50269CF4816590608F46A
:102020002C017D01D3019ACFCB010E94440E7C018B
:10203000009749F0AE01B8010E942610C8010E9425
:10204000E00E870153CF10E000E050CFFB01DC0130
:1020500002C001900D9241505040D8F70895FB0105
:10206000DC0101900D920020E1F7089510E0C2E636
:10207000D0E004C0FE010E943E0E2196C336D10777
:06208000C9F7F894FFCF40
:1020860001000000B702800000000000D8023802FC
:1020960065022503960274028802000000005E03B2
:1020A6003802F3035D03BA03D203450342540041E9
:1020B60055544F0048494748004C4F57000A425272
:1020C600494748544E4553533A2000206C756D6578
:1020D6006E730A004D4F44453A200053544154450F
:0620E6003A20000A0A0086
:00000001FF
